{
  "fileName": "ERC1155.sol",
  "contractName": "NFT",
  "source": "pragma solidity  0.7.4;\n\nimport \"../Interfaces/IERC1155.sol\";\nimport \"../Interfaces/IERC165.sol\";\nimport \"../utils/Address.sol\";\nimport \"../utils/SafeMath.sol\";\n\ncontract NFT is IERC1155{\n\n    using Address for address;\n    using SafeMath for uint256;\n\n\n//   bytes4 constant internal ERC1155_RECEIVED_VALUE = 0xf23a6e61;\n//   bytes4 constant internal ERC1155_BATCH_RECEIVED_VALUE = 0xbc197c81;\n\n    mapping(address => mapping(uint256 => uint256)) balances;\n    mapping(uint256 => mapping(address => uint256))  balances_nft;\n    mapping(address => mapping(address => bool)) operators;\n    mapping(address => mapping(address => bool)) operator;\n    mapping(uint256 => address) creaters; \n    uint256 private nonce;\n    uint256 private nftids=1;\n\n\n    function safeTransferFrom(\n    address _from,\n    address _to,\n    uint256 _id,\n    uint256 _value, \n    bytes calldata _data) \n    external override \n    {\n        require(msg.sender == _from || isApprovedForAll(msg.sender,_from)== true,\"NFT#safeTransferFrom: Not A Owner Nor Operator\");\n        require(_to!=address(0),\"NFT#safeTransferFrom: Not A valid receiver address\");\n        require(_value<= balanceOf(_from, _id),\"NFT#safeTransferFrom: Not have proper funds\");\n\n        balances[_from][_id]= balances[_from][_id].sub(_value);\n        balances[_to][_id]=balances[_to][_id].add(_value);\n\n        emit TransferSingle(msg.sender,_from,_to,_id,_value);\n\n        if(_to.isContract())\n        {\n         revert();//_doSafeTransferAcceptanceCheck(msg.sender, _from, _to, _id, _value, _data);\n        }\n    }\n\n    function safeTransferFromNft(\n    address _from,\n    address _to,\n    uint256 _id,\n    uint256 _value, \n    bytes calldata _data) \n    external  \n    {\n        require(msg.sender == _from || isApprovedForNft(msg.sender,_from)== true,\"NFT#safeTransferFrom: Not A Owner Nor Operator\");\n        require(_to!=address(0),\"NFT#safeTransferFrom: Not A valid receiver address\");\n        require(_value<= balanceOfNft(_from, _id),\"NFT#safeTransferFrom: Not have proper funds\");\n\n        balances_nft[_id][_from]= balances_nft[_id][_from].sub(_value);\n        balances_nft[_id][_to]=balances_nft[_id][_to].add(_value);\n        \n        emit TransferSingle(msg.sender,_from,_to,_id,_value);\n\n\n        if(_to.isContract())\n        {\n         revert();//_doSafeTransferAcceptanceCheck(msg.sender, _from, _to, _id, _value, _data);\n        }\n    }\n\n    function safeBatchTransferFrom(address _from, address _to, uint256[] calldata _ids,\n    uint[] calldata _values, bytes calldata _data) external override {\n        require(msg.sender==_from || isApprovedForAll(msg.sender,_from),\"NFT#safeBatchTransferFrom: Not A Owner Nor Operator\");\n        require(_to!=address(0),\"NFT#safeBatchTransferFrom: in valid receiver address.\");\n        require(_ids.length==_values.length,\"NFT#safeBatchTransferFrom: id & value is not in same length ! \");\n        \n        for(uint256 i=0; i< _ids.length;i++){\n            balances[_from][_ids[i]]= balances[_from][_ids[i]].sub(_values[i]);\n            balances[_to][_ids[i]]= balances[_to][_ids[i]].add(_values[i]);\n        }\n\n        emit TransferBatch(msg.sender,_from,_to,_ids,_values);\n\n        if(_to.isContract()){\n           revert(); // __doSafeBatchTransferAcceptanceCheck(msg.sender,_from,_to,_ids,_values,_data);\n        }\n    }\n\n    // function _doSafeBatchTransferAcceptanceCheck(address _operator,address _from, address _to,uint256[] _ids,uint256[] _values, bytes calldata _data) internal {\n    \n    //     require(ERC1155TokenReceiver(_to).onERC1155BatchReceived(_operator, _from, _ids, _values, _data) == ERC1155_BATCH_ACCEPTED, \"contract returned an unknown value from onERC1155BatchReceived\");\n\n    // }\n    // function _doSafeTransferAcceptanceCheck(address _operator, address _from, address _to,\n    // uint256 _id, uint256 _value, bytes memory _data) internal{\n    //     require(ERC1155TokenReceiver(_to).onERC1155Received(_from,_to,_id,_value,_data)==ERC1155_RECEIVED_VALUE,\"NFT#_doSafeTransferAcceptanceCheck: Interface not found.\");\n    // }\n\n    function balanceOf(address _owner, uint256 _id) public override view returns(uint256){\n        require(_owner!=address(0),\"NFT#BalanceOf: Not a Valid Address\");\n        return balances[_owner][_id];\n    }\n\n    function balanceOfBatch(address[] calldata _owners, uint256[] calldata _ids) external override view returns(uint[] memory)\n    {\n        require(_owners.length==_ids.length,\"NFT#balanceOfBatch\");\n        uint256[] memory temp=new uint256[](_owners.length);\n\n        for(uint256 i=0;i <_owners.length;i++){\n            temp[i]=balances[_owners[i]][_ids[i]];\n        }\n        return temp;\n    }\n\n    function setApprovalForAll(\n    address _operator, \n    bool _approved)\n    external override\n    {\n        require(_operator!=address(0),\"NFT#setApprovalForAll: Invalid Address.!\");\n        operators[msg.sender][_operator]=_approved;\n        emit ApprovalForAll(msg.sender,_operator, _approved);\n    }\n\n    function isApprovedForAll(\n    address _owner, \n    address _operator) \n    public override view returns(bool)\n    {\n        require(_owner!=address(0),\"NFT#isApprovedForAll: Invalid Address.!\");\n        return operators[_owner][_operator];\n    }\n    \n    function setApprovalForNft(\n    address _operator, \n    bool _approved)\n    external \n    {\n        require(_operator!=address(0),\"NFT#setApprovalForAll: Invalid Address.!\");\n        operator[msg.sender][_operator]=_approved;\n        //emit ApprovalForAll(msg.sender,_operator, _approved);\n    }\n    \n\n    function isApprovedForNft(\n    address _owner, \n    address _operator) \n    public  view returns(bool)\n    {\n        require(_owner!=address(0),\"NFT#isApprovedForAll: Invalid Address.!\");\n        return operator[_owner][_operator];\n    }\n\nfunction _mint(address _to, uint256 _id, uint256 _amount, bytes memory _data) external  {\n        require(_to!=address(0),\"ERC1155_Mint#_mint: minting address is invalid.\");\n        balances[_to][_id]= balances[_to][_id].add(_amount);\n\n        emit TransferSingle(msg.sender,address(0x0), _to, _id, _amount);\n\n        if(_to.isContract())\n        {\n            revert();\n            // use data variable here to check out interface is implemented or not.\n        }\n}\n\nfunction _mintNFT(address _to,uint256 _id, bytes memory _data) external {\n        \n        require(_to!=address(0),\"ERC1155#_mintNFT Invlid address\");\n        require(nftids!=_id,\"ERC1155#_mintNFT  id already exist\");\n        balances_nft[_id][_to]=balances_nft[_id][_to].add(1);\n        ++nftids;\n        emit TransferSingle(_to, address(0), _to , _id, 1);\n\n}\n\nfunction balanceOfNft(address _owner, uint256 _id) public view returns(uint256) {\n        return balances_nft[_id][_owner];\n}\nfunction create(uint256 _initialSupply, string memory _uri) external returns(uint256){\n\nuint256 _id=++nonce;\ncreaters[_id]=msg.sender;\nbalances[msg.sender][_id]= balances[msg.sender][_id].add(_initialSupply);\n\nemit TransferSingle(msg.sender, address(0), msg.sender , _id, _initialSupply);\n\nif(bytes(_uri).length > 0 ){\n    emit URI(_uri, _id);\n}\nreturn _id;\n}\n\n}",
  "sourcePath": "contracts/tokens/ERC1155.sol",
  "abi": [
    {
      "anonymous": false,
      "inputs": [
        {
          "indexed": true,
          "internalType": "address",
          "name": "_owner",
          "type": "address"
        },
        {
          "indexed": true,
          "internalType": "address",
          "name": "_operator",
          "type": "address"
        },
        {
          "indexed": false,
          "internalType": "bool",
          "name": "_approved",
          "type": "bool"
        }
      ],
      "name": "ApprovalForAll",
      "type": "event"
    },
    {
      "anonymous": false,
      "inputs": [
        {
          "indexed": true,
          "internalType": "address",
          "name": "_operator",
          "type": "address"
        },
        {
          "indexed": true,
          "internalType": "address",
          "name": "_from",
          "type": "address"
        },
        {
          "indexed": true,
          "internalType": "address",
          "name": "_to",
          "type": "address"
        },
        {
          "indexed": false,
          "internalType": "uint256[]",
          "name": "_ids",
          "type": "uint256[]"
        },
        {
          "indexed": false,
          "internalType": "uint256[]",
          "name": "_values",
          "type": "uint256[]"
        }
      ],
      "name": "TransferBatch",
      "type": "event"
    },
    {
      "anonymous": false,
      "inputs": [
        {
          "indexed": true,
          "internalType": "address",
          "name": "_operator",
          "type": "address"
        },
        {
          "indexed": true,
          "internalType": "address",
          "name": "_from",
          "type": "address"
        },
        {
          "indexed": true,
          "internalType": "address",
          "name": "_to",
          "type": "address"
        },
        {
          "indexed": false,
          "internalType": "uint256",
          "name": "_id",
          "type": "uint256"
        },
        {
          "indexed": false,
          "internalType": "uint256",
          "name": "_value",
          "type": "uint256"
        }
      ],
      "name": "TransferSingle",
      "type": "event"
    },
    {
      "anonymous": false,
      "inputs": [
        {
          "indexed": false,
          "internalType": "string",
          "name": "_value",
          "type": "string"
        },
        {
          "indexed": true,
          "internalType": "uint256",
          "name": "_id",
          "type": "uint256"
        }
      ],
      "name": "URI",
      "type": "event"
    },
    {
      "inputs": [
        {
          "internalType": "address",
          "name": "_to",
          "type": "address"
        },
        {
          "internalType": "uint256",
          "name": "_id",
          "type": "uint256"
        },
        {
          "internalType": "uint256",
          "name": "_amount",
          "type": "uint256"
        },
        {
          "internalType": "bytes",
          "name": "_data",
          "type": "bytes"
        }
      ],
      "name": "_mint",
      "outputs": [],
      "stateMutability": "nonpayable",
      "type": "function"
    },
    {
      "inputs": [
        {
          "internalType": "address",
          "name": "_to",
          "type": "address"
        },
        {
          "internalType": "uint256",
          "name": "_id",
          "type": "uint256"
        },
        {
          "internalType": "bytes",
          "name": "_data",
          "type": "bytes"
        }
      ],
      "name": "_mintNFT",
      "outputs": [],
      "stateMutability": "nonpayable",
      "type": "function"
    },
    {
      "inputs": [
        {
          "internalType": "address",
          "name": "_owner",
          "type": "address"
        },
        {
          "internalType": "uint256",
          "name": "_id",
          "type": "uint256"
        }
      ],
      "name": "balanceOf",
      "outputs": [
        {
          "internalType": "uint256",
          "name": "",
          "type": "uint256"
        }
      ],
      "stateMutability": "view",
      "type": "function"
    },
    {
      "inputs": [
        {
          "internalType": "address[]",
          "name": "_owners",
          "type": "address[]"
        },
        {
          "internalType": "uint256[]",
          "name": "_ids",
          "type": "uint256[]"
        }
      ],
      "name": "balanceOfBatch",
      "outputs": [
        {
          "internalType": "uint256[]",
          "name": "",
          "type": "uint256[]"
        }
      ],
      "stateMutability": "view",
      "type": "function"
    },
    {
      "inputs": [
        {
          "internalType": "address",
          "name": "_owner",
          "type": "address"
        },
        {
          "internalType": "uint256",
          "name": "_id",
          "type": "uint256"
        }
      ],
      "name": "balanceOfNft",
      "outputs": [
        {
          "internalType": "uint256",
          "name": "",
          "type": "uint256"
        }
      ],
      "stateMutability": "view",
      "type": "function"
    },
    {
      "inputs": [
        {
          "internalType": "uint256",
          "name": "_initialSupply",
          "type": "uint256"
        },
        {
          "internalType": "string",
          "name": "_uri",
          "type": "string"
        }
      ],
      "name": "create",
      "outputs": [
        {
          "internalType": "uint256",
          "name": "",
          "type": "uint256"
        }
      ],
      "stateMutability": "nonpayable",
      "type": "function"
    },
    {
      "inputs": [
        {
          "internalType": "address",
          "name": "_owner",
          "type": "address"
        },
        {
          "internalType": "address",
          "name": "_operator",
          "type": "address"
        }
      ],
      "name": "isApprovedForAll",
      "outputs": [
        {
          "internalType": "bool",
          "name": "",
          "type": "bool"
        }
      ],
      "stateMutability": "view",
      "type": "function"
    },
    {
      "inputs": [
        {
          "internalType": "address",
          "name": "_owner",
          "type": "address"
        },
        {
          "internalType": "address",
          "name": "_operator",
          "type": "address"
        }
      ],
      "name": "isApprovedForNft",
      "outputs": [
        {
          "internalType": "bool",
          "name": "",
          "type": "bool"
        }
      ],
      "stateMutability": "view",
      "type": "function"
    },
    {
      "inputs": [
        {
          "internalType": "address",
          "name": "_from",
          "type": "address"
        },
        {
          "internalType": "address",
          "name": "_to",
          "type": "address"
        },
        {
          "internalType": "uint256[]",
          "name": "_ids",
          "type": "uint256[]"
        },
        {
          "internalType": "uint256[]",
          "name": "_values",
          "type": "uint256[]"
        },
        {
          "internalType": "bytes",
          "name": "_data",
          "type": "bytes"
        }
      ],
      "name": "safeBatchTransferFrom",
      "outputs": [],
      "stateMutability": "nonpayable",
      "type": "function"
    },
    {
      "inputs": [
        {
          "internalType": "address",
          "name": "_from",
          "type": "address"
        },
        {
          "internalType": "address",
          "name": "_to",
          "type": "address"
        },
        {
          "internalType": "uint256",
          "name": "_id",
          "type": "uint256"
        },
        {
          "internalType": "uint256",
          "name": "_value",
          "type": "uint256"
        },
        {
          "internalType": "bytes",
          "name": "_data",
          "type": "bytes"
        }
      ],
      "name": "safeTransferFrom",
      "outputs": [],
      "stateMutability": "nonpayable",
      "type": "function"
    },
    {
      "inputs": [
        {
          "internalType": "address",
          "name": "_from",
          "type": "address"
        },
        {
          "internalType": "address",
          "name": "_to",
          "type": "address"
        },
        {
          "internalType": "uint256",
          "name": "_id",
          "type": "uint256"
        },
        {
          "internalType": "uint256",
          "name": "_value",
          "type": "uint256"
        },
        {
          "internalType": "bytes",
          "name": "_data",
          "type": "bytes"
        }
      ],
      "name": "safeTransferFromNft",
      "outputs": [],
      "stateMutability": "nonpayable",
      "type": "function"
    },
    {
      "inputs": [
        {
          "internalType": "address",
          "name": "_operator",
          "type": "address"
        },
        {
          "internalType": "bool",
          "name": "_approved",
          "type": "bool"
        }
      ],
      "name": "setApprovalForAll",
      "outputs": [],
      "stateMutability": "nonpayable",
      "type": "function"
    },
    {
      "inputs": [
        {
          "internalType": "address",
          "name": "_operator",
          "type": "address"
        },
        {
          "internalType": "bool",
          "name": "_approved",
          "type": "bool"
        }
      ],
      "name": "setApprovalForNft",
      "outputs": [],
      "stateMutability": "nonpayable",
      "type": "function"
    }
  ],
  "bytecode": "0x6080604052600160065534801561001557600080fd5b50612776806100256000396000f3fe608060405234801561001057600080fd5b50600436106100ce5760003560e01c80636ade0a311161008c578063d2df76cb11610066578063d2df76cb14610752578063e47df5be14610837578063e985e9c5146108b1578063f242432a1461092b576100ce565b80636ade0a31146105e557806397020aac14610635578063a22cb46514610702576100ce565b8062fdd58e146100d35780630118fa491461013557806314f92dd61461020e5780632ca6f4da146102705780632eb2c2d61461035f5780634e1273f4146104c2575b600080fd5b61011f600480360360408110156100e957600080fd5b81019080803573ffffffffffffffffffffffffffffffffffffffff169060200190929190803590602001909291905050506109f8565b6040518082815260200191505060405180910390f35b6101f86004803603604081101561014b57600080fd5b81019080803590602001909291908035906020019064010000000081111561017257600080fd5b82018360208201111561018457600080fd5b803590602001918460018302840111640100000000831117156101a657600080fd5b91908080601f016020809104026020016040519081016040528093929190818152602001838380828437600081840152601f19601f820116905080830192505050505050509192919290505050610ad7565b6040518082815260200191505060405180910390f35b61025a6004803603604081101561022457600080fd5b81019080803573ffffffffffffffffffffffffffffffffffffffff16906020019092919080359060200190929190505050610d29565b6040518082815260200191505060405180910390f35b61035d6004803603608081101561028657600080fd5b81019080803573ffffffffffffffffffffffffffffffffffffffff1690602001909291908035906020019092919080359060200190929190803590602001906401000000008111156102d757600080fd5b8201836020820111156102e957600080fd5b8035906020019184600183028401116401000000008311171561030b57600080fd5b91908080601f016020809104026020016040519081016040528093929190818152602001838380828437600081840152601f19601f820116905080830192505050505050509192919290505050610d84565b005b6104c0600480360360a081101561037557600080fd5b81019080803573ffffffffffffffffffffffffffffffffffffffff169060200190929190803573ffffffffffffffffffffffffffffffffffffffff169060200190929190803590602001906401000000008111156103d257600080fd5b8201836020820111156103e457600080fd5b8035906020019184602083028401116401000000008311171561040657600080fd5b90919293919293908035906020019064010000000081111561042757600080fd5b82018360208201111561043957600080fd5b8035906020019184602083028401116401000000008311171561045b57600080fd5b90919293919293908035906020019064010000000081111561047c57600080fd5b82018360208201111561048e57600080fd5b803590602001918460018302840111640100000000831117156104b057600080fd5b9091929391929390505050610f73565b005b61058e600480360360408110156104d857600080fd5b81019080803590602001906401000000008111156104f557600080fd5b82018360208201111561050757600080fd5b8035906020019184602083028401116401000000008311171561052957600080fd5b90919293919293908035906020019064010000000081111561054a57600080fd5b82018360208201111561055c57600080fd5b8035906020019184602083028401116401000000008311171561057e57600080fd5b90919293919293905050506113f3565b6040518080602001828103825283818151815260200191508051906020019060200280838360005b838110156105d15780820151818401526020810190506105b6565b505050509050019250505060405180910390f35b610633600480360360408110156105fb57600080fd5b81019080803573ffffffffffffffffffffffffffffffffffffffff169060200190929190803515159060200190929190505050611588565b005b610700600480360360a081101561064b57600080fd5b81019080803573ffffffffffffffffffffffffffffffffffffffff169060200190929190803573ffffffffffffffffffffffffffffffffffffffff1690602001909291908035906020019092919080359060200190929190803590602001906401000000008111156106bc57600080fd5b8201836020820111156106ce57600080fd5b803590602001918460018302840111640100000000831117156106f057600080fd5b90919293919293905050506116a6565b005b6107506004803603604081101561071857600080fd5b81019080803573ffffffffffffffffffffffffffffffffffffffff169060200190929190803515159060200190929190505050611a4d565b005b6108356004803603606081101561076857600080fd5b81019080803573ffffffffffffffffffffffffffffffffffffffff16906020019092919080359060200190929190803590602001906401000000008111156107af57600080fd5b8201836020820111156107c157600080fd5b803590602001918460018302840111640100000000831117156107e357600080fd5b91908080601f016020809104026020016040519081016040528093929190818152602001838380828437600081840152601f19601f820116905080830192505050505050509192919290505050611bd2565b005b6108996004803603604081101561084d57600080fd5b81019080803573ffffffffffffffffffffffffffffffffffffffff169060200190929190803573ffffffffffffffffffffffffffffffffffffffff169060200190929190505050611e22565b60405180821515815260200191505060405180910390f35b610913600480360360408110156108c757600080fd5b81019080803573ffffffffffffffffffffffffffffffffffffffff169060200190929190803573ffffffffffffffffffffffffffffffffffffffff169060200190929190505050611f3b565b60405180821515815260200191505060405180910390f35b6109f6600480360360a081101561094157600080fd5b81019080803573ffffffffffffffffffffffffffffffffffffffff169060200190929190803573ffffffffffffffffffffffffffffffffffffffff1690602001909291908035906020019092919080359060200190929190803590602001906401000000008111156109b257600080fd5b8201836020820111156109c457600080fd5b803590602001918460018302840111640100000000831117156109e657600080fd5b9091929391929390505050612054565b005b60008073ffffffffffffffffffffffffffffffffffffffff168373ffffffffffffffffffffffffffffffffffffffff161415610a7f576040517f08c379a00000000000000000000000000000000000000000000000000000000081526004018080602001828103825260228152602001806125d16022913960400191505060405180910390fd5b6000808473ffffffffffffffffffffffffffffffffffffffff1673ffffffffffffffffffffffffffffffffffffffff168152602001908152602001600020600083815260200190815260200160002054905092915050565b6000806005600081546001019190508190559050336004600083815260200190815260200160002060006101000a81548173ffffffffffffffffffffffffffffffffffffffff021916908373ffffffffffffffffffffffffffffffffffffffff160217905550610b9f846000803373ffffffffffffffffffffffffffffffffffffffff1673ffffffffffffffffffffffffffffffffffffffff1681526020019081526020016000206000848152602001908152602001600020546123f790919063ffffffff16565b6000803373ffffffffffffffffffffffffffffffffffffffff1673ffffffffffffffffffffffffffffffffffffffff1681526020019081526020016000206000838152602001908152602001600020819055503373ffffffffffffffffffffffffffffffffffffffff16600073ffffffffffffffffffffffffffffffffffffffff163373ffffffffffffffffffffffffffffffffffffffff167fc3d58168c5ae7397731d063d5bbf3d657854427343f4c083240f7aacaa2d0f628488604051808381526020018281526020019250505060405180910390a4600083511115610d1f57807f6bb7ff708619ba0610cba295a58592e0451dee2622938c8755667688daf3529b846040518080602001828103825283818151815260200191508051906020019080838360005b83811015610ce4578082015181840152602081019050610cc9565b50505050905090810190601f168015610d115780820380516001836020036101000a031916815260200191505b509250505060405180910390a25b8091505092915050565b60006001600083815260200190815260200160002060008473ffffffffffffffffffffffffffffffffffffffff1673ffffffffffffffffffffffffffffffffffffffff16815260200190815260200160002054905092915050565b600073ffffffffffffffffffffffffffffffffffffffff168473ffffffffffffffffffffffffffffffffffffffff161415610e0a576040517f08c379a000000000000000000000000000000000000000000000000000000000815260040180806020018281038252602f8152602001806126b8602f913960400191505060405180910390fd5b610e6c826000808773ffffffffffffffffffffffffffffffffffffffff1673ffffffffffffffffffffffffffffffffffffffff1681526020019081526020016000206000868152602001908152602001600020546123f790919063ffffffff16565b6000808673ffffffffffffffffffffffffffffffffffffffff1673ffffffffffffffffffffffffffffffffffffffff1681526020019081526020016000206000858152602001908152602001600020819055508373ffffffffffffffffffffffffffffffffffffffff16600073ffffffffffffffffffffffffffffffffffffffff163373ffffffffffffffffffffffffffffffffffffffff167fc3d58168c5ae7397731d063d5bbf3d657854427343f4c083240f7aacaa2d0f628686604051808381526020018281526020019250505060405180910390a4610f638473ffffffffffffffffffffffffffffffffffffffff1661247f565b15610f6d57600080fd5b50505050565b8773ffffffffffffffffffffffffffffffffffffffff163373ffffffffffffffffffffffffffffffffffffffff161480610fb35750610fb23389611f3b565b5b611008576040517f08c379a00000000000000000000000000000000000000000000000000000000081526004018080602001828103825260338152602001806125706033913960400191505060405180910390fd5b600073ffffffffffffffffffffffffffffffffffffffff168773ffffffffffffffffffffffffffffffffffffffff16141561108e576040517f08c379a00000000000000000000000000000000000000000000000000000000081526004018080602001828103825260358152602001806126316035913960400191505060405180910390fd5b8383905086869050146110ec576040517f08c379a000000000000000000000000000000000000000000000000000000000815260040180806020018281038252603e8152602001806125f3603e913960400191505060405180910390fd5b60005b868690508110156112dd5761118085858381811061110957fe5b905060200201356000808c73ffffffffffffffffffffffffffffffffffffffff1673ffffffffffffffffffffffffffffffffffffffff16815260200190815260200160002060008a8a8681811061115c57fe5b905060200201358152602001908152602001600020546124c490919063ffffffff16565b6000808b73ffffffffffffffffffffffffffffffffffffffff1673ffffffffffffffffffffffffffffffffffffffff16815260200190815260200160002060008989858181106111cc57fe5b9050602002013581526020019081526020016000208190555061126b8585838181106111f457fe5b905060200201356000808b73ffffffffffffffffffffffffffffffffffffffff1673ffffffffffffffffffffffffffffffffffffffff16815260200190815260200160002060008a8a8681811061124757fe5b905060200201358152602001908152602001600020546123f790919063ffffffff16565b6000808a73ffffffffffffffffffffffffffffffffffffffff1673ffffffffffffffffffffffffffffffffffffffff16815260200190815260200160002060008989858181106112b757fe5b9050602002013581526020019081526020016000208190555080806001019150506110ef565b508673ffffffffffffffffffffffffffffffffffffffff168873ffffffffffffffffffffffffffffffffffffffff163373ffffffffffffffffffffffffffffffffffffffff167f4a39dc06d4c0dbc64b70af90fd698a233a518aa5d07e595d983b8c0526c8f7fb898989896040518080602001806020018381038352878782818152602001925060200280828437600081840152601f19601f8201169050808301925050508381038252858582818152602001925060200280828437600081840152601f19601f820116905080830192505050965050505050505060405180910390a46113df8773ffffffffffffffffffffffffffffffffffffffff1661247f565b156113e957600080fd5b5050505050505050565b6060828290508585905014611470576040517f08c379a00000000000000000000000000000000000000000000000000000000081526004018080602001828103825260128152602001807f4e46542362616c616e63654f664261746368000000000000000000000000000081525060200191505060405180910390fd5b60608585905067ffffffffffffffff8111801561148c57600080fd5b506040519080825280602002602001820160405280156114bb5781602001602082028036833780820191505090505b50905060005b8686905081101561157b576000808888848181106114db57fe5b9050602002013573ffffffffffffffffffffffffffffffffffffffff1673ffffffffffffffffffffffffffffffffffffffff1673ffffffffffffffffffffffffffffffffffffffff168152602001908152602001600020600086868481811061154057fe5b9050602002013581526020019081526020016000205482828151811061156257fe5b60200260200101818152505080806001019150506114c1565b5080915050949350505050565b600073ffffffffffffffffffffffffffffffffffffffff168273ffffffffffffffffffffffffffffffffffffffff16141561160e576040517f08c379a00000000000000000000000000000000000000000000000000000000081526004018080602001828103825260288152602001806126e76028913960400191505060405180910390fd5b80600360003373ffffffffffffffffffffffffffffffffffffffff1673ffffffffffffffffffffffffffffffffffffffff16815260200190815260200160002060008473ffffffffffffffffffffffffffffffffffffffff1673ffffffffffffffffffffffffffffffffffffffff16815260200190815260200160002060006101000a81548160ff0219169083151502179055505050565b8573ffffffffffffffffffffffffffffffffffffffff163373ffffffffffffffffffffffffffffffffffffffff1614806116ed5750600115156116e93388611e22565b1515145b611742576040517f08c379a000000000000000000000000000000000000000000000000000000000815260040180806020018281038252602e8152602001806125a3602e913960400191505060405180910390fd5b600073ffffffffffffffffffffffffffffffffffffffff168573ffffffffffffffffffffffffffffffffffffffff1614156117c8576040517f08c379a000000000000000000000000000000000000000000000000000000000815260040180806020018281038252603281526020018061270f6032913960400191505060405180910390fd5b6117d28685610d29565b83111561182a576040517f08c379a000000000000000000000000000000000000000000000000000000000815260040180806020018281038252602b815260200180612666602b913960400191505060405180910390fd5b61188d836001600087815260200190815260200160002060008973ffffffffffffffffffffffffffffffffffffffff1673ffffffffffffffffffffffffffffffffffffffff168152602001908152602001600020546124c490919063ffffffff16565b6001600086815260200190815260200160002060008873ffffffffffffffffffffffffffffffffffffffff1673ffffffffffffffffffffffffffffffffffffffff16815260200190815260200160002081905550611944836001600087815260200190815260200160002060008873ffffffffffffffffffffffffffffffffffffffff1673ffffffffffffffffffffffffffffffffffffffff168152602001908152602001600020546123f790919063ffffffff16565b6001600086815260200190815260200160002060008773ffffffffffffffffffffffffffffffffffffffff1673ffffffffffffffffffffffffffffffffffffffff168152602001908152602001600020819055508473ffffffffffffffffffffffffffffffffffffffff168673ffffffffffffffffffffffffffffffffffffffff163373ffffffffffffffffffffffffffffffffffffffff167fc3d58168c5ae7397731d063d5bbf3d657854427343f4c083240f7aacaa2d0f628787604051808381526020018281526020019250505060405180910390a4611a3b8573ffffffffffffffffffffffffffffffffffffffff1661247f565b15611a4557600080fd5b505050505050565b600073ffffffffffffffffffffffffffffffffffffffff168273ffffffffffffffffffffffffffffffffffffffff161415611ad3576040517f08c379a00000000000000000000000000000000000000000000000000000000081526004018080602001828103825260288152602001806126e76028913960400191505060405180910390fd5b80600260003373ffffffffffffffffffffffffffffffffffffffff1673ffffffffffffffffffffffffffffffffffffffff16815260200190815260200160002060008473ffffffffffffffffffffffffffffffffffffffff1673ffffffffffffffffffffffffffffffffffffffff16815260200190815260200160002060006101000a81548160ff0219169083151502179055508173ffffffffffffffffffffffffffffffffffffffff163373ffffffffffffffffffffffffffffffffffffffff167f17307eab39ab6107e8899845ad3d59bd9653f200f220920489ca2b5937696c318360405180821515815260200191505060405180910390a35050565b600073ffffffffffffffffffffffffffffffffffffffff168373ffffffffffffffffffffffffffffffffffffffff161415611c75576040517f08c379a000000000000000000000000000000000000000000000000000000000815260040180806020018281038252601f8152602001807f45524331313535235f6d696e744e465420496e766c696420616464726573730081525060200191505060405180910390fd5b816006541415611cd0576040517f08c379a000000000000000000000000000000000000000000000000000000000815260040180806020018281038252602281526020018061254e6022913960400191505060405180910390fd5b611d33600180600085815260200190815260200160002060008673ffffffffffffffffffffffffffffffffffffffff1673ffffffffffffffffffffffffffffffffffffffff168152602001908152602001600020546123f790919063ffffffff16565b6001600084815260200190815260200160002060008573ffffffffffffffffffffffffffffffffffffffff1673ffffffffffffffffffffffffffffffffffffffff16815260200190815260200160002081905550600660008154600101919050819055508273ffffffffffffffffffffffffffffffffffffffff16600073ffffffffffffffffffffffffffffffffffffffff168473ffffffffffffffffffffffffffffffffffffffff167fc3d58168c5ae7397731d063d5bbf3d657854427343f4c083240f7aacaa2d0f62856001604051808381526020018281526020019250505060405180910390a4505050565b60008073ffffffffffffffffffffffffffffffffffffffff168373ffffffffffffffffffffffffffffffffffffffff161415611ea9576040517f08c379a00000000000000000000000000000000000000000000000000000000081526004018080602001828103825260278152602001806126916027913960400191505060405180910390fd5b600360008473ffffffffffffffffffffffffffffffffffffffff1673ffffffffffffffffffffffffffffffffffffffff16815260200190815260200160002060008373ffffffffffffffffffffffffffffffffffffffff1673ffffffffffffffffffffffffffffffffffffffff16815260200190815260200160002060009054906101000a900460ff16905092915050565b60008073ffffffffffffffffffffffffffffffffffffffff168373ffffffffffffffffffffffffffffffffffffffff161415611fc2576040517f08c379a00000000000000000000000000000000000000000000000000000000081526004018080602001828103825260278152602001806126916027913960400191505060405180910390fd5b600260008473ffffffffffffffffffffffffffffffffffffffff1673ffffffffffffffffffffffffffffffffffffffff16815260200190815260200160002060008373ffffffffffffffffffffffffffffffffffffffff1673ffffffffffffffffffffffffffffffffffffffff16815260200190815260200160002060009054906101000a900460ff16905092915050565b8573ffffffffffffffffffffffffffffffffffffffff163373ffffffffffffffffffffffffffffffffffffffff16148061209b5750600115156120973388611f3b565b1515145b6120f0576040517f08c379a000000000000000000000000000000000000000000000000000000000815260040180806020018281038252602e8152602001806125a3602e913960400191505060405180910390fd5b600073ffffffffffffffffffffffffffffffffffffffff168573ffffffffffffffffffffffffffffffffffffffff161415612176576040517f08c379a000000000000000000000000000000000000000000000000000000000815260040180806020018281038252603281526020018061270f6032913960400191505060405180910390fd5b61218086856109f8565b8311156121d8576040517f08c379a000000000000000000000000000000000000000000000000000000000815260040180806020018281038252602b815260200180612666602b913960400191505060405180910390fd5b61223a836000808973ffffffffffffffffffffffffffffffffffffffff1673ffffffffffffffffffffffffffffffffffffffff1681526020019081526020016000206000878152602001908152602001600020546124c490919063ffffffff16565b6000808873ffffffffffffffffffffffffffffffffffffffff1673ffffffffffffffffffffffffffffffffffffffff1681526020019081526020016000206000868152602001908152602001600020819055506122ef836000808873ffffffffffffffffffffffffffffffffffffffff1673ffffffffffffffffffffffffffffffffffffffff1681526020019081526020016000206000878152602001908152602001600020546123f790919063ffffffff16565b6000808773ffffffffffffffffffffffffffffffffffffffff1673ffffffffffffffffffffffffffffffffffffffff1681526020019081526020016000206000868152602001908152602001600020819055508473ffffffffffffffffffffffffffffffffffffffff168673ffffffffffffffffffffffffffffffffffffffff163373ffffffffffffffffffffffffffffffffffffffff167fc3d58168c5ae7397731d063d5bbf3d657854427343f4c083240f7aacaa2d0f628787604051808381526020018281526020019250505060405180910390a46123e58573ffffffffffffffffffffffffffffffffffffffff1661247f565b156123ef57600080fd5b505050505050565b600080828401905083811015612475576040517f08c379a00000000000000000000000000000000000000000000000000000000081526004018080602001828103825260168152602001807f536166654d617468236164643a204f564552464c4f570000000000000000000081525060200191505060405180910390fd5b8091505092915050565b600080823f90506000801b81141580156124bc57507fc5d2460186f7233c927e7db2dcc703c0e500b653ca82273b7bfad8045d85a47060001b8114155b915050919050565b60008282111561253c576040517f08c379a00000000000000000000000000000000000000000000000000000000081526004018080602001828103825260178152602001807f536166654d617468237375623a20554e444552464c4f5700000000000000000081525060200191505060405180910390fd5b60008284039050809150509291505056fe45524331313535235f6d696e744e46542020696420616c72656164792065786973744e4654237361666542617463685472616e7366657246726f6d3a204e6f742041204f776e6572204e6f72204f70657261746f724e465423736166655472616e7366657246726f6d3a204e6f742041204f776e6572204e6f72204f70657261746f724e46542342616c616e63654f663a204e6f7420612056616c696420416464726573734e4654237361666542617463685472616e7366657246726f6d3a20696420262076616c7565206973206e6f7420696e2073616d65206c656e6774682021204e4654237361666542617463685472616e7366657246726f6d3a20696e2076616c696420726563656976657220616464726573732e4e465423736166655472616e7366657246726f6d3a204e6f7420686176652070726f7065722066756e64734e4654236973417070726f766564466f72416c6c3a20496e76616c696420416464726573732e21455243313135355f4d696e74235f6d696e743a206d696e74696e67206164647265737320697320696e76616c69642e4e465423736574417070726f76616c466f72416c6c3a20496e76616c696420416464726573732e214e465423736166655472616e7366657246726f6d3a204e6f7420412076616c69642072656365697665722061646472657373a26469706673582212205f9177d2127deb6c9936f5fb86044cced45c91d4d3f6c5e4a16325c1c977631f64736f6c63430007040033",
  "compiler": {
    "name": "solc",
    "version": "0.7.4+commit.3f05b770.Emscripten.clang",
    "optimizer": {
      "enabled": false,
      "runs": 200
    },
    "evmVersion": "petersburg"
  }
}